:020000040800F2
:10000000B80F0020A5160008A1020008A3020008EE
:10001000A7020008AB020008AF02000800000000C1
:10002000000000000000000000000000B302000813
:10003000B502000800000000B7020008B90200087D
:10004000BF160008BF160008BF160008BF1600083C
:10005000BF160008BF160008F9060008BF16000802
:10006000250700084F07000879070008BF16000899
:10007000BF160008BF160008BF160008BF1600080C
:10008000BF160008BF160008BF160008BF160008FC
:10009000BF160008BF160008BF160008BF160008EC
:1000A000BF160008BF160008BF160008BF160008DC
:1000B000BF160008BF160008BF160008BF160008CC
:1000C000BF160008BF160008BF160008BF160008BC
:1000D000BF16000819160008BF160008BF16000852
:1000E000BF160008BF160008BF160008BF1600089C
:1000F000BF160008BF160008BF160008BF1600088C
:10010000BF160008BF160008BF160008BF1600087B
:10011000BF160008BF160008BF160008BF1600086B
:10012000BF160008BF160008BF160008BF1600085B
:1001300000F002F800F05AF80AA090E8000C82449F
:100140008344AAF10107DA4501D100F04FF8AFF27C
:10015000090EBAE80F0013F0010F18BFFB1A43F0A5
:1001600001031847544B0000744B00000A444FF041
:10017000000C10F8013B13F0070408BF10F8014B06
:100180001D1108BF10F8015B641E05D010F8016B4B
:10019000641E01F8016BF9D113F0080F1EBF10F8AF
:1001A000014BAD1C0C1B09D16D1E58BF01F801CBD2
:1001B000FAD505E014F8016B01F8016B6D1EF9D555
:1001C0009142D6D37047000000230024002500266A
:1001D000103A28BF78C1FBD8520728BF30C148BFAA
:1001E0000B6070471FB51FBD10B510BD03F020F8A0
:1001F0001146FFF7F7FF00F009F803F03EF803B4EB
:10020000FFF7F2FF03BC01F0ADF9000001F040F987
:1002100000F0C3F84FF4A06001F064FA4FF4E1304D
:1002200001F0AEF900F03AF900F05EF900F04BFB96
:1002300000F0ECFD0020194908602EE000F064FE9B
:100240002AE000F088FE0546012D20D11DE000F0D7
:10025000BEFE0646062E00D118E000F025FF04463B
:10026000012C04D0022C06D0032C0CD107E0304620
:1002700000F05DFF07E0304600F0BAFF03E03046D3
:1002800001F014F800BF00BF0026E0E703E0022DF4
:1002900001D101F0DAF80025D3E7CFE794812142BC
:1002A000704700BFFEE700BFFEE700BFFEE700BFEC
:1002B000FEE7704770477047704700000CB500209C
:1002C000019000906C48006840F480306A490860F2
:1002D00000BF6948006800F4003000900198401C9D
:1002E0000190009818B90198B0F5A06FF1D162485B
:1002F000006800F4003010B10120009001E00020FF
:1003000000900098012843D15C48006840F010003C
:100310005A4908600846006820F003000860084653
:10032000006840F002000860534840685249486045
:100330000846406848600846406840F4806048606D
:100340000846406820F47C1048600846406840F445
:10035000E81048600846006840F08070086000BF00
:100360004548006800F000700028F9D04248406815
:1003700020F00300404948600846406840F0020011
:10038000486000BF3C48406800F00C000828F9D1E4
:100390000CBD10B5FFF792FF10BD10B536480068D0
:1003A00040F001003449086008464068344908407C
:1003B0003149486008460068324908402E490860C3
:1003C0000846006820F4802008600846406820F451
:1003D000FE0048604FF41F008860FFF7DAFF4FF01F
:1003E00000602949086010BD10B5002100200022DE
:1003F000214B5B6803F00C0121B1042906D00829C8
:1004000028D107E0214B224C236027E01F4B204CD2
:10041000236023E0184B5B6803F47010164B5B6895
:1004200003F48032022303EB904022B9194B43437B
:10043000174C23600DE0104B5B6803F4003323B1CD
:10044000144B4343124C236003E0104B4343104CC6
:10045000236003E00D4B0E4C236000BF00BF064B32
:100460005B68C3F303130C4CE15C094B1B68CB4086
:10047000074C236010BD0000001002400020024025
:100480000000FFF8FFFFF6FE08ED00E000127A0022
:100490000000002000093D000400002008B50121F3
:1004A000482001F037FD2020ADF8000010208DF825
:1004B000030003208DF802006946094801F06EFA36
:1004C0002021074801F017FB2020ADF80000694605
:1004D000044801F063FA2021024801F00CFB08BD3A
:1004E000000C01400018014008B50121442001F032
:1004F00011FD1C20ADF8000048208DF8030069466E
:10050000354801F04BFA0120ADF8000028208DF8A5
:1005100003006946314801F041FA08BD10B50446B0
:1005200014B101202E4908702D480078002837D0DA
:100530001021294801F0C5FA78B10821264801F0B8
:10054000C0FA50B10421244801F0BBFA28B10121BE
:10055000224801F0B6FA012822D10A2000F0D5FF86
:1005600000201F49087010211B4801F0AAFA08B9A1
:10057000012010BD0821184801F0A3FA08B9022093
:10058000F7E70421144801F09CFA08B90320F0E7CA
:100590000121124801F095FA01281BD10420E8E757
:1005A00010210D4801F08DFA012813D108210A48C5
:1005B00001F087FA01280DD10421074801F081FAE2
:1005C000012807D10121054801F07BFA10B901206B
:1005D000034908700020CCE70018014000080140E2
:1005E000140000200EB5FFF77FFF0121442001F029
:1005F00091FC0221042001F0E7FA04200190002080
:100600008DF808000C208DF8090001208DF80A00F3
:1006100001A801F0E3F80321042001F0D5FA082035
:10062000019000208DF808000C208DF809000120B1
:100630008DF80A0001A801F0D1F80421084601F064
:10064000C3FA1020019000208DF808000C208DF8CE
:10065000090001208DF80A0001A801F0BFF800216F
:10066000084601F0B1FA0120019000208DF8080041
:1006700008208DF8090001208DF80A0001A801F07A
:10068000ADF806208DF8000002208DF8010003204F
:100690008DF8020001208DF80300684601F027F86C
:1006A00008208DF8000002208DF801008DF802006E
:1006B00001208DF80300684601F019F809208DF833
:1006C000000002208DF8010001208DF802008DF855
:1006D0000300684601F00BF80A208DF800000220A4
:1006E0008DF8010000208DF8020001208DF8030034
:1006F000684600F0FCFF0EBD10B50A2000F005FFB3
:100700000121284801F0DDF9012807D126480068B9
:1007100008B9012000E0002023490860012001F011
:10072000D4F810BD10B50A2000F0EFFE04211F48D8
:1007300001F0C7F938B91E48006808B9012000E087
:1007400000201B490860042001F0BFF810BD10B55F
:100750000A2000F0DAFE0821144801F0B2F938B995
:100760001148006808B9012000E000200E49086027
:10077000082001F0AAF810BD10B50A2000F0C5FE4F
:1007800010210A4801F09DF938B90948006808B9F4
:10079000012000E0002006490860102001F095F8D3
:1007A00010BD0000000801409401234200180140E0
:1007B0009481214270B504460D46082625B9802152
:1007C000FE4801F09AF903E08021FC4801F093F91A
:1007D00019E04FF40061F94801F08FF904F080004E
:1007E00028B14FF40071F54801F085F904E04FF4A9
:1007F0000071F24801F081F94FF40061EF4801F017
:100800007AF96006040E301EA6F10101CEB2E0D1E5
:1008100070BD10B500210C20FFF7CCFF0021802017
:10082000FFF7C8FF002405E001210020FFF7C2FF09
:10083000601C84B2B4F5FC7FF6DB10BD10B5044635
:1008400000212120FFF7B6FF44F080000021FFF7D0
:10085000B1FF00212020FFF7ADFF10BD10B508212A
:10086000D64801F04AF9012000F04FFE0821D34894
:1008700001F041F92021D14801F03DF9012000F0BB
:1008800044FE2021CD4801F038F900212120FFF756
:1008900091FF0021C820FFF78DFF00210620FFF700
:1008A00089FF00211320FFF785FF00212020FFF79B
:1008B00081FF00210C20FFF77DFF7F20FFF7BEFFA7
:1008C000FFF7A7FF10BD08B50121082001F022FBAA
:1008D0004FF6FF70ADF8000001208DF802001020E7
:1008E0008DF803006946B54801F058F8FFF7B6FFE8
:1008F00008BD70B504460D46532C00DD5324052D6C
:1009000000DD052545F040000021FFF753FF44F0CE
:1009100080000021FFF74EFF70BD2DE9F04704462F
:100920000D469046994600210C20FFF743FF002119
:100930008020FFF73FFF2E4612E0274609E0F1B284
:10094000F8B2FFF7D6FF01210020FFF733FF781C34
:1009500087B204EB0800401CB842F0DC701C86B281
:1009600005EB0900401CB042E7DCBDE8F0872DE94B
:10097000F0410746884615461E4641463846FFF771
:10098000B8FFA5F12000C5B27EB900240AE005EB4E
:1009900045018B4A02EB4101085D0121FFF70AFF87
:1009A000601CC4B2062CF2DD10E000240CE005EB64
:1009B0004501834A02EB4101095DC943C8B20121E7
:1009C000FFF7F8FE601CC4B2062CF0DDBDE8F08134
:1009D0002DE9F04105460E4614461F4611E014F875
:1009E000012B3B4631462846FFF7C1FFA81DC5B283
:1009F000542D06DD0025701CC6B2641E062E00DBD9
:100A0000002620780028EAD1BDE8F0812DE9FF4FCB
:100A100083B08246894615460024A3462E4635B942
:100A200009F0FF0130225046069BFFF7A0FF04E0CB
:100A30000A20B6FBF0F6601CC4B2002EF8D1A34623
:100A400026E0601E03F0FFFB02460B46CDE90001E5
:100A500000205C4902F0A4FC074603F0C7FB0646F1
:100A6000B5FBF6F00A21B0FBF1F201FB120000F138
:100A7000300709F0FF01ABEB040202EB42020AEB84
:100A80004202D0B23A46069BFFF771FF601EC4B225
:100A9000002CD6D107B0BDE8F08F2DE9F047814694
:100AA0000F4615461E46DDF8208039464846FFF7BA
:100AB00020FFB8F1000F1BD1002406E005EB461122
:100AC000085D0121FFF776FE641C102CF6DB781C14
:100AD000C1B24846FFF70DFF102406E005EB4611B2
:100AE000085D0121FFF766FE641C202CF6DB21E087
:100AF000B8F1010F1ED1002408E005EB4611095D95
:100B0000C943C8B20121FFF755FE641C102CF4DB69
:100B1000781CC1B24846FFF7ECFE102408E005EB54
:100B20004611095DC943C8B20121FFF743FE641CA9
:100B3000202CF4DBBDE8F0872DE9F84305460F468D
:100B400090461E46DDF82090002400BF0CE02346AE
:100B5000424639462846CDF80090FFF79EFF05F142
:100B60001000C5B2601CC4B2B442F0DBBDE8F8832B
:100B70002DE9F04105460C4600260027532D01DCE7
:100B80002F2C02DD0020BDE8F081E11704EB51714C
:100B9000C1F3C706E11704EB5171C910A4EBC107FB
:100BA00031462846FFF7A5FEC6EBC60000EB400025
:100BB00005EB80000449085C012107E0000C0140BE
:100BC000FC4900080000244094060020B940084376
:100BD000C6EBC60101EB410105EB81018A4A505485
:100BE000C6EBC60101EB410105EB8101505C01211F
:100BF000FFF7E0FD0120C6E72DE9F04705460E4668
:100C00000027BA46FFF705FE002428E015F80490F7
:100C10004FF0000813E009F0010030B151463846AA
:100C2000FFF7A6FF052000F070FC4FEA69090AF102
:100C3000010000F0FF0A08F1010000F0FF08B8F120
:100C4000080FE8DB601C062190FBF1F201FB1200AB
:100C500018B9781CC7B24FF0000A601C84B2B442C5
:100C6000D4DBBDE8F0872DE9FF4F85B081468A4689
:100C70000020049003900798A0EB09050898A0EBCA
:100C80000A06CDF80890CDF804A0002D01DD01275B
:100C900005E00DB9002702E04FF0FF376D42002E4E
:100CA00002DD4FF0010806E016B94FF0000802E03F
:100CB0004FF0FF387642B54201DD2C4600E0344665
:100CC0004FF0000B21E0019AD1B2029AD0B2FFF7A7
:100CD0004FFF0498284404900398304403900498EC
:100CE000A04205DD0498001B04900298384402904D
:100CF0000398A04205DD0398001B0390019840442F
:100D000001900BF101001FFA80FB601C8345DADDC6
:100D100009B0BDE8F08F2DE9F04104460D461646B6
:100D20001F462B46324629462046FFF79CFF3B468E
:100D3000224629462046FFF796FF3B463246394673
:100D40002046FFF790FF3B46324629463046FFF7E4
:100D50008AFFBDE8F0812DE9F04706460F46904630
:100D6000002445460320A0EB480948E03A1BD1B2D5
:100D7000721BD0B2FFF7FCFE3A1BD1B27219D0B28F
:100D8000FFF7F6FE7A19D1B2321BD0B2FFF7F0FEB0
:100D90003A1BD1B2721BD0B2FFF7EAFE7A1BD1B276
:100DA000321BD0B2FFF7E4FE3A19D1B27219D0B2B9
:100DB000FFF7DEFE7A1BD1B23219D0B2FFF7D8FEB0
:100DC0007A19D1B23219D0B2FFF7D2FE3A19D1B2A4
:100DD000721BD0B2FFF7CCFE641CB9F1000F03DA2E
:100DE000A000801D814404E0601B80000A30814423
:100DF0006D1E7A19D1B23219D0B2FFF7B9FEAC42EA
:100E0000B4DDBDE8F08700009406002000B589B08D
:100E10000121022001F08BF801210C2001F07AF869
:100E2000C020ADF8200018208DF8230003208DF895
:100E3000220008A9314800F0B1FD0320ADF82000E0
:100E400018208DF8230003208DF8220008A92C48D3
:100E500000F0A4FD42F20F70ADF818008F20ADF83D
:100E600014000020ADF81A00ADF8160005A92548B9
:100E700001F08CFB6020ADF804000120ADF8060005
:100E80000020ADF80C0001A91E4801F0BCFB01A92F
:100E90001C4801F0FAFB01A91A4801F043FC01A922
:100EA000184801F08AFC0821164801F0FBFF0821D0
:100EB000144802F000F80821124802F009F808214D
:100EC000104802F00EF801210E4801F0BBFE01218E
:100ED0000C4801F0C3FE00210A4802F04BF9002142
:100EE000084802F049F90021064802F047F90021BC
:100EF000044802F045F909B000BD000000080140B7
:100F0000000C01400004004010B54FF4FF71FB4895
:100F1000FFF772FEFFF77DFC0023F9A201211846BE
:100F2000FFF756FD0023FAA203211846FFF750FDF4
:100F30000023FBA204211846FFF74AFD0023FCA270
:100F400005211846FFF744FD40F2523000F0DDFA6B
:100F5000FFF75FFC10BD70B500250124FFF759FCB9
:100F60000023E7A201211846FFF732FD0023F4A277
:100F700004211846FFF72CFD0023F3A20521184693
:100F8000FFF726FD1FE0022D00D11DE06019C4B25D
:100F9000022C01DD012402E0012C00DA0224012CE4
:100FA00002D0022C0ED106E00123E5A2042100208C
:100FB000FFF70EFD06E00123E3A205210020FFF765
:100FC00007FD00BF00BFDEE700BF204670BD70B563
:100FD00001240025FFF71DFC0023DDA21946184659
:100FE000FFF7F6FC0023DDA201211846FFF7F0FC15
:100FF0000023DDA202211846FFF7EAFC0023DDA250
:1010000003211846FFF7E4FC0023DDA20421184663
:10101000FFF7DEFC0023DDA205211846FFF7D8FC10
:101020003EE0022D00D13CE06019C4B2012C01DA8F
:10103000062402E0062C00DD0124072C2FD2DFE875
:1010400004F02E040B12192027000123C0A2002156
:101050000846FFF7BDFC22E00123C0A2194600208C
:10106000FFF7B6FC1BE00123BFA202210020FFF71F
:10107000AFFC14E00123BFA203210020FFF7A8FC6E
:101080000DE00123BEA204210020FFF7A1FC06E031
:101090000123BEA205210020FFF79AFC00BF00BF7C
:1010A000BFE700BF204670BD10B5FFF7B2FB0023BD
:1010B000B8A219461846FFF78BFC0023B7A20121FE
:1010C0001846FFF785FC0023B6A202211846FFF759
:1010D0007FFC28E0022D00D126E06019C4B2012C6B
:1010E00001DA032402E0032C00DD0124012C04D0EA
:1010F000022C09D0032C15D10DE00123A5A200215B
:101100000846FFF765FC0DE00123A4A21946002064
:10111000FFF75EFC06E00123A2A202210020FFF7F8
:1011200057FC00BF00BFD5E700BF204610BDF8B593
:1011300005460026FA24FFF76CFB00239BA2194604
:101140001846FFF745FC00239BA201211820FFF75A
:101150003FFC00239AA202211846FFF739FC002326
:101160009AA203211846FFF733FC01200223994A73
:10117000042100900020FFF7DFFC36E00023224628
:1011800003211820FFF742FC062D1CD2DFE805F0F2
:101190001B03060A0E129048048014E08E48001DBE
:1011A000048010E08C48083004800CE08A480C3041
:1011B000048008E088480480001D0480001D04802D
:1011C000001D048000BF00BF022E00D10EE0A01958
:1011D00084B240F2E240844201DD044602E0FA2C8F
:1011E00000DAFA24322000F090F9C7E700BFF8BD1A
:1011F000F8B5044640F2EE260025FFF70AFB00236F
:101200006AA219461846FFF7E3FB00236AA20121F0
:101210001820FFF7DDFB002369A202211846FFF723
:10122000D7FB002369A203211846FFF7D1FB002357
:10123000324603211820FFF7E9FB062C26D2DFE80F
:1012400004F02503080E141A40F2EE2062490880CB
:101250001CE040F2EE206049091D088016E040F2D3
:10126000EE205D490831088010E040F2EE205A4936
:101270000C3108800AE040F2EE2057490880091D31
:101280000880091D0880091D088000BF00BF0120DB
:101290000223504A042100900020FFF74DFC02E099
:1012A000022D00D100E0FBE700BFF8BDF8B5054610
:1012B00040F2EE240026FFF7ACFA00233BA21946C9
:1012C0001846FFF785FB00233BA201211820FFF7FA
:1012D0007FFB00233AA202211846FFF779FB002387
:1012E0003AA203211846FFF773FB01200223394A73
:1012F000042100900020FFF71FFCA3E01500002050
:1013000020536572766F2054657374657200000017
:101310004056657273696F6E3A312E302E30000080
:1013200040417574686F723A4C6979690000000039
:1013300040446174653A323031382E362E32000026
:10134000426567696E00000041626F7574000000BD
:101350004368616E6E656C20310000004368616E09
:101360006E656C20320000004368616E6E656C2013
:10137000330000004368616E6E656C20340000002D
:10138000414C4C204368616E6E656C004272656131
:101390006B0000004175746F000000004D696464CB
:1013A0006C6500004D616E75616C00007073633A8E
:1013B00046313A313433000046343A313637000092
:1013C0006172723A31303030300000004343523A9B
:1013D00000000000D3050020340400400023224612
:1013E00003211820FFF712FB062D1CD2DFE805F0C1
:1013F0001B03060A0E122548048014E02348001D32
:10140000048010E02148083004800CE01F480C30B4
:10141000048008E01D480480001D0480001D048035
:10142000001D048000BF00BF022E00D10BE0A019F8
:1014300084B240F2E240844201DD044602E0FA2C2C
:1014400000DAFA24CAE700BFF8BD10B50024FFF7A0
:10145000E0F90023AFF2481219461846FFF7B8FA30
:101460000023AFF2441201211846FFF7B1FA00231E
:10147000AFF2441202211846FFF7AAFA02E0022C4A
:1014800000D100E0FBE700BF10BD000034040040C5
:1014900010B56FF0040000F074F92E4800682E4972
:1014A000B0FBF1F02D4908700846007800EB4001D0
:1014B000C1EBC0104FF6FF7101EAC0002849088057
:1014C00010BD0146254A12784A434FF0E0235A6185
:1014D00000229A611A46126942F001021A6100BFA5
:1014E0004FF0E022106900F001021AB100F48032DE
:1014F000002AF5D04FF0E022126922F001024FF0ED
:10150000E0231A6100229A6170470146144A12884A
:101510004A434FF0E0235A6100229A611A46126949
:1015200042F001021A6100BF4FF0E022106900F0A2
:1015300001021AB100F48032002AF5D04FF0E02207
:10154000126922F001024FF0E0231A6100229A6131
:10155000704700000000002000127A00740600208E
:101560007606002000BF704700BF4A4A128802F08A
:101570004002002AF9D0C2B2464B1B1D1A807047A8
:1015800010B586B00446012144F2040000F0C2FC0C
:101590004FF40070ADF8140003208DF816001820E9
:1015A0008DF8170005A93C4800F0F8F94FF4806069
:1015B000ADF8140004208DF8170005A9364800F096
:1015C000EDF925208DF8000003208DF801008DF83D
:1015D000020001208DF80300684600F088F80194AD
:1015E0000020ADF80800ADF80A00ADF80C00ADF829
:1015F00010000C20ADF80E0001A9264800F031FDC6
:10160000012240F22551234800F0C3FD0121214869
:1016100000F0B3FD06B010BD10B540F225511D48D5
:1016200000F09CFE10B31B4800F018FEC4B21B482B
:10163000008800F40040C8B91848008800F48040D1
:1016400060B10A2C03D000201449088020E0134820
:10165000008840F400401149088019E00D2C06D1A3
:101660000E48008840F480400C49088010E00B4888
:101670000088C0F30D000A490C5408480088401C3B
:101680000649088008460088C72801DD0020088038
:1016900010BD000000380140000801407C06002019
:1016A0008C0800200948804709480047FEE7FEE70C
:1016B000FEE7FEE7FEE7FEE7FEE7FEE7FEE7FEE702
:1016C00004480549054A064B704700009B03000883
:1016D00031010008B8090020B80F0020B80B002025
:1016E000B80B002031490143314A1160704770B591
:1016F000002100230F22C47804B32D4C246804F485
:10170000E064C4F5E064210AC1F10403CA404478EE
:1017100004FA03F18478144021430901254C06782A
:10172000A155047804F01F050124AC4005786D1123
:10173000AD0005F1E025C5F8004109E0047804F0AA
:101740001F050124AC401C4D0678761145F8264053
:1017500070BD1A4A0A400243154B1B1F1A6070479E
:1017600039B1134A121D12680243114B1B1D1A6036
:1017700006E00F4A121D126882430D4B1B1D1A60B2
:101780007047042808D14FF0E021096941F00401B5
:101790004FF0E022116107E04FF0E021096921F0EC
:1017A00004014FF0E0221161704700000000FA05CB
:1017B0000CED00E000E400E080E100E080FFFF1FAE
:1017C000002044490860091D0860091D0860091DC2
:1017D000086041483F4914310860704700213D4985
:1017E0008279002A3AD00A46126803689A430B4667
:1017F0001A600A1D126803689A430B1D1A60027969
:1018000011440A6803681A430A60324A08321268AF
:1018100003689A432F4B08331A601A1D1268036835
:101820009A432C4B0C331A604279102A0ED11A1F9E
:10183000126803681A43274B08331A601A1D12688E
:1018400003681A43234B0C331A600DE02149427997
:1018500011440A6803681A430A6005E002791144DA
:101860000A6803689A430A607047002101600171A9
:101870000C214171002181717047164910310968AE
:101880000143144A10321160704701460020114A8A
:10189000143212680A400AB1012000E000207047AB
:1018A0000C49143108607047014600200022094BA2
:1018B0001B6803EA0102074B14331B680B4013B18A
:1018C0000AB1012000E0002070470249143108608D
:1018D0007047000000040140FFFF0F0010B50446F0
:1018E000CC48844208D10121042000F02DFB0021C6
:1018F000042000F029FB46E0C748844208D10121BA
:10190000082000F021FB0021082000F01DFB3AE038
:10191000C248844208D10121102000F015FB0021AB
:10192000102000F011FB2EE0BD48844208D10121B7
:10193000202000F009FB0021202000F005FB22E020
:10194000B848844208D10121402000F0FDFA00216E
:10195000402000F0F9FA16E0B348844208D1012192
:10196000802000F0F1FA0021802000F0EDFA0AE07A
:10197000AE48844207D10121801500F0E5FA00212C
:10198000A01500F0E1FA10BD10B50121084600F0E5
:10199000DBFA0021012000F0D7FA10BD2DE9F0415B
:1019A000024600250026002000230024002791F88D
:1019B00003C00CF00F0591F803C00CF0100CBCF143
:1019C000000F03D091F802C04CEA050591F800C061
:1019D000BCF1000F31D0146800202BE04FF0010C57
:1019E0000CFA00F3B1F800C00CEA03069E4220D1C5
:1019F00083004FF00F0C0CFA03F7BC4305FA03FC0D
:101A00004CEA040491F803C0BCF1280F06D14FF052
:101A1000010C0CFA00FCC2F814C00AE091F803C0F3
:101A2000BCF1480F05D14FF0010C0CFA00FCC2F8D4
:101A300010C0401C0828D1D31460B1F800C0BCF11C
:101A4000FF0F34DD546800202EE000F1080C4FF049
:101A5000010808FA0CF3B1F800C00CEA03069E4234
:101A600021D183004FF00F0C0CFA03F7BC4305FAA9
:101A700003FC4CEA040491F803C0BCF1280F05D123
:101A800000F1080C08FA0CF8C2F8148091F803C0B1
:101A9000BCF1480F07D100F1080C4FF0010808FA1B
:101AA0000CF8C2F81080401C0828CED35460BDE862
:101AB000F0814FF6FF710180022181700421C17015
:101AC00070470246002093680B400BB1012000E0F4
:101AD000002070470146886880B2704702460020A7
:101AE000D3680B400BB1012000E000207047014695
:101AF000C86880B2704701617047416170470AB1A0
:101B0000016100E041617047C16070474FF480326D
:101B10000A438261816182618269826970470246FB
:101B20000020434B18684FF68073184040EA0210BB
:101B300008433F4B186070473E49C8617047F0B595
:101B40000A46002300240021002500F00046B6F1DB
:101B5000004F02D1364EF16901E0354E7168C0F395
:101B6000034583B200F44016B6F5401F08D121F0BA
:101B700070612F4E766826F070662D4F7E6012E001
:101B800000F48016B6F5801F06D1032606FA05F488
:101B9000A14341F0706106E0460D360103FA06F6F6
:101BA000B14341F0706122B1460D360103FA06F6E9
:101BB000314300F00046B6F1004F02D11C4EF161F6
:101BC00001E01B4E7160F0BD30B500228B071C0F89
:101BD0000F2303FA04F2164B08338C1053F8243009
:101BE0009343134C08348D1044F8253023468C1051
:101BF00053F824308C07240F00FA04F423430C4CD0
:101C000008348D1044F8253030BD0A49DC310860B5
:101C10007047000000080140000C01400010014026
:101C20000014014000180140001C01400020014048
:101C30000000014000002042DF48006840F0010041
:101C4000DD49086008464068DC490840DA494860D8
:101C500008460068DA490840D74908600846006825
:101C600020F4802008600846406820F4FE004860A8
:101C70004FF41F0088607047CF49096821F4803114
:101C8000CD4A11601146096821F480211160B0F538
:101C9000803F03D0B0F5802F0ED106E0C649096819
:101CA00041F48031C44A116007E0C349096841F436
:101CB000A021C14A116000E000BF00BF704710B50D
:101CC00001460022002300204A11012A02D1BA4C09
:101CD000236806E0022A02D1B74C236A01E0B64C21
:101CE000636A01F01F02012494401C400CB10120E2
:101CF00000E0002010BD38B5002000900024002531
:101D000000BF3120FFF7DBFF05460098401C009024
:101D10000098B0F5A06F01D0002DF2D03120FFF770
:101D2000CEFF08B1012400E00024204638BD014662
:101D30000020A14A106820F0F80040EAC1001060BD
:101D40007047A04908607047024600209A4B5868C7
:101D500020F47C1042EA01031843974B5860704707
:101D600098490866704701460020934A506820F061
:101D700003000843506070478F48406800F00C0033
:101D80007047014600208C4A506820F0F00008435C
:101D90005060704701460020874A506820F4E06098
:101DA00008435060704701460020834A506820F481
:101DB000605040EAC1005060704729B17E4A527AB3
:101DC00002437D4B5A7204E07B4A527A82437A4B3B
:101DD0005A7270477B49D83108607047014600202D
:101DE000754A506820F44040084350607047002115
:101DF000714A20321170704A82F82010012802D0F6
:101E000004280AD104E001216B4A2032117005E058
:101E10000521694A2032117000E000BF00BF704701
:101E20006949086070476449096A0143624A11625E
:101E30007047654944390860704730B50021002279
:101E4000002400235C4D6D6805F00C0121B10429CC
:101E500005D0082923D105E05C4D056022E05B4DEB
:101E600005601FE0544D6D6805F47012524D6D68A9
:101E700005F48034022505EB92421CB9544D5543BC
:101E800005600BE04C4D6D6805F400351DB1504DFB
:101E90005543056002E04D4D5543056002E04B4D52
:101EA000056000BF00BF444D6D6805F0F0010909F1
:101EB000484D6B5C0568DD4045603F4D6D6805F43D
:101EC000E061090A434D6B5C4568DD4085603A4D31
:101ED0006D6805F46051C90A3E4D6B5C4568DD4094
:101EE000C560354D6D6805F44041890B3A4D6B5C1A
:101EF000C568B5FBF3F5056130BD29B12E4A5269BD
:101F000002432D4B5A6104E02B4A526982432A4B0B
:101F10005A61704729B1284A92690243264B9A6157
:101F200004E0254A92698243234B9A61704729B1A4
:101F3000214AD2690243204BDA6104E01E4AD26989
:101F400082431D4BDA61704729B11B4AD2680243B4
:101F5000194BDA6004E0184AD2688243164BDA6003
:101F6000704729B1144A12690243134B1A6104E005
:101F7000114A12698243104B1A6170471249403965
:101F8000086070470F49C86470470B49C8717047B3
:101F90000948406A40F0807007494862704701462E
:101FA0000020054A92680A400AB1012000E00020A2
:101FB0007047014988727047001002400000FFF826
:101FC000FFFFF6FE000042428004424200127A0007
:101FD00000093D007E0600208E06002010B5044654
:101FE000FB48844209D101218803FFF7ADFF00219E
:101FF0004FF48040FFF7A8FF32E0F648844209D151
:1020000001214804FFF7ADFF00214FF40030FFF736
:10201000A8FF25E0F048844209D101218804FFF798
:10202000A0FF00214FF48020FFF79BFF18E0EB4852
:10203000844209D10121C804FFF793FF00214FF426
:102040000020FFF78EFF0BE0E548844208D1012114
:102050000805FFF786FF00214FF48010FFF781FF8E
:1020600010BD2DE9F04786B005460E460024A24675
:1020700000BFA1460027B08900B100BF2F462C8ABF
:102080004CF6FF700440F08804432C82AC894EF675
:10209000F3100440B0883189084371890843044330
:1020A000AC81AC8A4FF6FF400440B0890443AC8257
:1020B00001A8FFF7C2FEC648874202D1DDF810A092
:1020C00001E0DDF80CA0A88900F4004040B10AEB63
:1020D000CA0000EB0A1031684900B0FBF1F807E0D4
:1020E0000AEBCA0000EB0A1031688900B0FBF1F876
:1020F0006420B8FBF0F004012009642101FB108981
:10210000A88900F4004040B1322000EBC900B0FBC8
:10211000F1F000F00700044308E0322000EB091062
:102120006421B0FBF1F000F00F0004432C8106B0F5
:10213000BDE8F0874FF41651016000218180C18015
:1021400001810C21418100218181704710B5024637
:102150000020108A4FF2FF0318400B884C8823435D
:102160008C882343CC8823431843108210BD002160
:10217000018041808180C180704721B1828942F411
:102180000052828104E082894DF6FF731A408281F9
:102190007047F0B50346002400260025002040F6D5
:1021A0006A17B94200D100BF1846C1F3421401F0CA
:1021B0001F06012707FA06F5012C01D10C3004E0B7
:1021C000022C01D1103000E014301AB107682F43FF
:1021D000076002E00768AF430760F0BD1AB1838A69
:1021E0000B43838202E0838A8B4383827047028A97
:1021F0004FF6F0731A400282028A0A430282704745
:1022000082894FF2FF731A40828182890A43828158
:10221000704721B1828942F00202828104E0828902
:102220004FF6FD731A4082817047028A4FF6DF73C2
:102230001A400282028A0A430282704721B1028A4E
:1022400042F48042028204E0028A4BF6FF731A4095
:1022500002827047C1F30802828070470146888875
:10226000C0F308007047818941F001018181704706
:10227000028BD2B20283028B42EA012202837047B0
:10228000028B02F47F420283028B0A43028370476F
:1022900021B1828A42F02002828204E0828A4FF6D3
:1022A000DF731A408282704721B1828A42F01002A5
:1022B000828204E0828A4FF6EF731A40828270476E
:1022C00021B1828A42F00802828204E0828A4FF6BB
:1022D000F7731A408282704721B1828942F400422A
:1022E000828103E08289C2F30E028281704721B1AC
:1022F000828A42F40062828204E0828A4FF2FF7393
:102300001A4082827047828A4FF6FB731A4082829B
:10231000828A0A438282704721B1828A42F0020295
:10232000828204E0828A4FF6FD731A4082827047EF
:1023300002460020B1F5007F00D100BF13880B409A
:102340000BB1012000E00020704701F40072B2F5EB
:10235000007F00D100BFCA430280704770B50246BB
:10236000002400230025002040F66A16B14200D167
:1023700000BFC1F3421501F01F03012606FA03F363
:10238000012D02D19689334006E0022D02D1168A32
:10239000334001E0968A33400C12012606FA04F419
:1023A0001688344013B10CB1012000E0002070BD4C
:1023B00010B50022002340F66A14A14200D100BFEC
:1023C0000A1201249440A3B2DC43048010BD000033
:1023D000003801400044004000480040004C0040EC
:1023E0000050004010B50446FE48844208D1012147
:1023F000C014FFF7A9FD0021E014FFF7A5FDC4E01C
:10240000B4F1804F08D101210846FFF7AAFD002151
:102410000120FFF7A6FDB8E0F348844208D101216E
:102420000220FFF79EFD00210220FFF79AFDACE09D
:10243000EE48844208D101210420FFF792FD0021DB
:102440000420FFF78EFDA0E0E948844208D1012175
:102450000820FFF786FD00210820FFF782FD94E0A9
:10246000E448844208D101211020FFF77AFD0021C1
:102470001020FFF776FD88E0DF48844208D1012173
:102480002020FFF76EFD00212020FFF76AFD7CE091
:10249000DA48844208D101214014FFF755FD00219C
:1024A0006014FFF751FD70E0D548844209D1012145
:1024B000C804FFF749FD00214FF40020FFF744FD59
:1024C00063E0D048844209D101210805FFF73CFDB3
:1024D00000214FF48010FFF737FD56E0CA488442D0
:1024E00009D101214805FFF72FFD00214FF400100D
:1024F000FFF72AFD49E0C548844208D10121402068
:10250000FFF72FFD00214020FFF72BFD3DE0C048E5
:10251000844208D101218020FFF723FD0021802083
:10252000FFF71FFD31E0BB48844208D1012180152F
:10253000FFF717FD0021A015FFF713FD25E0B648B2
:10254000844209D101210804FFF7FEFC00214FF469
:102550008030FFF7F9FC18E0B048844209D101212E
:102560004804FFF7F1FC00214FF40030FFF7ECFCCA
:102570000BE0AB48844208D101218804FFF7E4FC5A
:1025800000214FF48020FFF7DFFC10BD00220288FD
:10259000944B98420ED0994B98420BD0B0F1804F9B
:1025A00008D0914B984205D0904B984202D0904B66
:1025B000984204D14FF68F731A404B881A438D4BC3
:1025C000984207D08C4B984204D04FF6FF431A40F4
:1025D000CB881A4302808B8883850B880385814BC7
:1025E00098420BD0854B984208D08B4B984205D02F
:1025F0008A4B984202D08A4B984201D10B7A0386CB
:1026000001238382704770B5002400220023058CCB
:102610004FF6FE7635400584028C8388048B4FF696
:102620008F752C40B51E2C400D882C43751E2A40FA
:102630000D892A434D882A436A4DA8420BD06F4D1D
:10264000A84208D0744DA84205D0744DA84202D0CB
:10265000734DA84213D14FF6F7752A404D892A438E
:102660004FF6FB752A408D882A434FF6FF652B40B5
:102670004FF6FF552B408D892B43CD892B4383800B
:102680000483CD888586028470BD70B50024002245
:102690000023058C4FF6EF7635400584028C838845
:1026A000048B48F6FF752C404FF6FF452C400D88F3
:1026B0004FF6FF7606EA05252C434FF6DF752A40D4
:1026C0000D8906EA05152A434D8806EA05152A43B1
:1026D000444DA84202D0494DA8421DD14FF67F7506
:1026E0002A404D894FF6FF7606EA05152A434FF634
:1026F000BF752A408D8806EA05152A434FF6FF3537
:102700002B404FF2FF752B408D8906EA85052B4340
:10271000CD8906EA85052B4383800483CD88058710
:10272000028470BD70B5002400220023058C4FF692
:10273000FF6635400584028C8388848B4FF68F7545
:102740002C404FF6FC752C400D882C434FF6FF555E
:102750002A400D894FF6FF7606EA05252A434D8863
:1027600006EA05252A431F4DA84202D0234DA84260
:102770001DD14FF2FF752A404D894FF6FF7606EACC
:1027800005252A434FF6FF352A408D8806EA0525A0
:102790002A434EF6FF752B404DF6FF752B408D8971
:1027A00006EA05152B43CD8906EA05152B438380E0
:1027B0008483CD888587028470BD70B50022002394
:1027C0000024058C4EF6FF7635400584038C848802
:1027D000828B48F6FF752A404FF6FF452A400D8848
:1027E00020E00000002C01400004004000080040F0
:1027F000000C004000100040001400400034014074
:10280000004C0140005001400054014000180040BD
:10281000001C0040002000400040014000440140F6
:10282000004801404FF6FF7606EA05252A434DF69B
:10283000FF752B400D8906EA05352B434D8806EAC6
:1028400005352B43FA4DA84202D0FA4DA84208D1D3
:102850004BF6FF752C408D894FF6FF7606EA8515FD
:102860002C4384808283CD88A0F84050038470BDBF
:10287000828B4FF2FF331A408283828B4FF6FF73B5
:1028800003EA01231A4382837047F0B50C461546CC
:10289000002200210026078C4EF6FF7C07EA0C0779
:1028A0000784828B018C4FF6FF7707EA043640F6E7
:1028B000FF473A404FF6FF7707EA05273A434FF6BE
:1028C000FF7707EA03373A43D94FB8420ED0D94FC2
:1028D000B8420BD0B0F1804F08D0D74FB84205D0E6
:1028E000D64FB84202D0D64FB84206D14DF6FF7748
:1028F000394046F48057394305E047F6FF573940E1
:1029000044F48057394382830184F0BD828B4FF6B3
:10291000F3731A408283828B0A4382837047F0B537
:102920000C461546002200210026078C4FF6FF6C4E
:1029300007EA0C070784828B018C4FF6FF7707EAC2
:1029400004264FF60C773A404FF6FF7707EA031755
:102950002F433A43B64FB8420ED0B64FB8420BD0D1
:10296000B0F1804F08D0B44FB84205D0B34FB84251
:1029700002D0B34FB84206D14FF6FF57394046F464
:102980008077394305E04FF2FF57394044F48077B0
:10299000394382830184F0BD028B4FF2FF331A402A
:1029A0000283028B4FF6FF7303EA01231A4302836B
:1029B0007047F0B50C461546002200210026078C12
:1029C0004FF6EF7C07EA0C070784028B018C4FF669
:1029D000FF7707EA041640F6FF473A404FF6FF77C5
:1029E00007EA03373A434FF6FF7707EA05273A43EA
:1029F0008F4FB8420ED08F4FB8420BD0B0F1804FFE
:102A000008D08D4FB84205D08C4FB84202D08C4FC1
:102A1000B84206D14FF6DF77394046F01007394308
:102A200005E04FF65F77394044F0100739430283E1
:102A30000184F0BD028B4FF6F3731A400283028BC0
:102A40000A4302837047F0B50C4615460022002168
:102A5000068C4FF6FE773E400684028B018C4FF6C3
:102A60000C7632407E1C06EA03162E433243704E2B
:102A7000B0420ED06F4EB0420BD0B0F1804F08D0B4
:102A80006D4EB04205D06D4EB04202D06C4EB04299
:102A900006D14FF6FD76314044F00106314305E0A2
:102AA0004FF6F576314044F001063143028301844C
:102AB000F0BD70B505460C465D4885420ED05D48B8
:102AC00085420BD0B5F1804F08D05B48854205D0D8
:102AD0005A48854202D05A48854200D100E000BFE2
:102AE000208850B92389A28861882846FFF7ABFF68
:102AF000E1882846FFF79EFF25E0208804280AD1B8
:102B00002389A28861882846FFF753FFE188284679
:102B1000FFF742FF17E0208808280AD12389A288FE
:102B200061882846FFF7FBFEE1882846FFF7EEFEA6
:102B300009E02389A28861882846FFF7A6FEE1887C
:102B40002846FFF795FE70BD2DE9F04105460C467D
:102B500000260127608808B9022600E00026A08828
:102B6000012801D1022700E001272088A0B923898C
:102B7000A28861882846FFF766FFE1882846FFF7AC
:102B800059FF23893A4631462846FFF712FFE1886C
:102B90002846FFF701FF13E02389A28861882846B1
:102BA000FFF707FFE1882846FFF7F6FE23893A463C
:102BB00031462846FFF747FFE1882846FFF73AFFEE
:102BC000BDE8F0810A884B881A438B881A43CB886A
:102BD0001A430B891A434B891A438B891A43A0F86D
:102BE000442070474FF6FF71818000210180C18031
:102BF0004180017270470021018041808180C18045
:102C0000018141818181C181704700210180418022
:102C1000012181800021C180018170470021018054
:102C200041808180C18001814181818170470000A4
:102C3000002C014000340140000400400008004026
:102C4000000C004021B1028842F00102028004E041
:102C500002884FF6FE731A400280704731B1B0F817
:102C6000442042F40042A0F8442005E0B0F844209B
:102C7000C2F30E02A0F8442070471AB183890B43B7
:102C8000838102E083898B4383817047818270470F
:102C900041EA0203A0F8483070471AB183890B4318
:102CA000838102E083898B438381704701894FF6DA
:102CB000F8721140018170470A46002101894FF6E0
:102CC0008F73194011430181704730B504460D469A
:102CD00029462046FFF7F0FF208940F007002081B9
:102CE00030BD2DE9F04104460D4616461F46602DC5
:102CF00006D13B46012231462046FFF75AFE05E049
:102D00003B46012231462046FFF79DFE29462046DC
:102D1000FFF7D2FF208940F007002081BDE8F08155
:102D200030B50C4600210189C9B24FF6FF7505EA9E
:102D30000325154325432943018130BD2DE9F04189
:102D400005460E4617469846002443463A46314605
:102D50002846FFF7E5FF2C894FF6F870044044F051
:102D600007044FF68F70044044F070042C81BDE8D6
:102D7000F081F0B504460D4616461F463B463246E6
:102D800029462046FFF7CCFF208940F4804020816F
:102D9000F0BD0185828270470A46002101884FF606
:102DA0008F731940114301807047F0B50C461546EA
:102DB0001E460021002200230189028B038C4FF65E
:102DC000F877394021434FF6FC473A4040F201176B
:102DD0003A434FF6DD773B404FF6FF7707EA061799
:102DE0002F433B43018102830384F0BD0A46002147
:102DF000018B4FF68F7319401143018370470A46C8
:102E00000021018B48F6FF7319404FF6FF7303EA68
:102E100002231943018370470A460021818B4FF634
:102E20008F7319401143818370470A460021818BBB
:102E300048F6FF7319404FF6FF7303EA0223194364
:102E40008183704721B1028842F08002028004E051
:102E500002884FF67F731A400280704721B1828842
:102E600042F00402828004E082884FF6FB731A402D
:102E70008280704721B1828842F00802828004E09B
:102E800082884FF6F7731A408280704721B182889A
:102E900042F00102828004E082884FF6FE731A40FD
:102EA000828070470A460021018B4FF6F773194064
:102EB0001143018370470A460021018B4FF2FF73D3
:102EC00019404FF6FF7303EA022319430183704749
:102ED0000A460021818B4FF6F77319401143818315
:102EE00070470A460021818B4FF2FF7319404FF65D
:102EF000FF7303EA02231943818370470A460021C6
:102F0000018B4FF6FB7319401143018370470A464A
:102F10000021018B4FF6FF3319404FF6FF7303EA90
:102F200002231943018370470A460021818B4FF623
:102F3000FB7319401143818370470A460021818B3E
:102F40004FF6FF3319404FF6FF7303EA022319438C
:102F5000818370470A460021018B4FF67F73194029
:102F60001143018370470A460021018BC1F30E0112
:102F70004FF6FF7303EA02231943018370470A46A1
:102F80000021818B4FF67F73194011438183704775
:102F90000A460021818BC1F30E014FF6FF7303EA4D
:102FA00002231943818370470A460021018C4FF6A2
:102FB000FD7319401143018470470A460021018CBA
:102FC0004FF6F77319401143018470470A460021F8
:102FD000018C4FF6DF7319404FF6FF7303EA0213BB
:102FE0001943018470470A460021018C4FF67F7314
:102FF00019404FF6FF7303EA021319430184704727
:103000000A460021018C4FF6FF5319404FF6FF731B
:1030100003EA02231943018470470A460021018C08
:103020004FF2FF7319404FF6FF7303EA022319436F
:10303000018470470A460021018C4DF6FF73194048
:103040004FF6FF7303EA023319430184704730B52A
:10305000002301248C40A3B2048C9C430484048C80
:1030600002FA01F5ADB22C43048430BD30B5002323
:1030700004248C40A3B2048C9C430484048C02FA84
:1030800001F5ADB22C43048430BD70B50346002079
:1030900000241846183001258D40ACB21D8CA54384
:1030A0001D8409B1082909D100EB6100056825F0EC
:1030B000700505600568154305600EE00D1FC5F33A
:1030C0004E052844056825F4E045056005684FF67F
:1030D000FF7606EA02263543056070BD21B10288FD
:1030E00042F00202028004E002884FF6FD731A40AB
:1030F0000280704721B1028842F00402028004E09D
:1031000002884FF6FB731A400280704721B1828813
:1031100042F08002828004E082884FF67F731A407A
:103120008280704702884FF6F7731A400280028847
:103130000A430280704782884FF68F731A4082805C
:1031400082880A438280704702894FF6F8731A40DA
:10315000028102890A430281704702894FF67F7318
:103160001A40028102890A430281704781847047B4
:1031700081857047818670470187704781877047D6
:10318000A0F84010704702884FF6FF431A400280B3
:1031900002880A43028070470146888E70470146C4
:1031A000088F70470146888F70470146B1F840008C
:1031B00070470146888C70470146088D704702466B
:1031C0000020138A0B400BB1012000E00020704763
:1031D000CA430282704730B5024600200023002413
:1031E000158A05EA0103958905EA010413B10CB1BA
:1031F000012000E0002030BDCA43028270477047C2
:10320000704770477047704710B500F009F80068C4
:1032100010BD10B5044600F003F8046010BD0000B6
:1032200000487047540900200048704754090020A6
:103230007546FFF7F9FFAE4605006946534620F094
:103240000700854618B020B5FEF73AFABDE82040E1
:103250004FF000064FF000074FF000084FF0000B52
:1032600021F00701AC46ACE8C009ACE8C009ACE805
:10327000C009ACE8C0098D46704710B50446AFF3ED
:1032800000802046BDE81040FCF7B9BF490050EA75
:10329000C12018BF04204A0D18BF40F0010040F2C1
:1032A000FF72B2EB515F08BF40F00200012808BF77
:1032B000052070472DE9F0414F1E00EBC701044681
:1032C000D1E9000115461E4637F006020DD02A4608
:1032D000334601F00BF87F1E04EBC703D3E900234C
:1032E00000F070FD37F00602F1D1022F25D0042F37
:1032F00013D0062F18BFBDE8F0812A46334600F0F0
:10330000F5FFD4E90A2300F05DFD2A46334600F0BC
:10331000EDFFD4E9082300F055FD2A46334600F0BE
:10332000E5FFD4E9062300F04DFD2A46334600F0C0
:10333000DDFFD4E9042300F045FD2A46334600F0C2
:10334000D5FFD4E9022300F03DFD2A46334600F0C4
:10335000CDFFD4E90023BDE8F04100F033BD00000B
:10336000002213461046014900F0E8BD0000F03F7E
:1033700000F028BD002213461046114600F0DEBDC5
:1033800040F2013200204FF0E04101F0F1BA0000BC
:10339000024A0020110701F0EBBA000001FDFFFF17
:1033A0002DE9F04D1D460C4698B0174621F000411E
:1033B00023F00043002814BF4FF0010C4FF0000C25
:1033C0000CEB440CFE4A0CEB02064FEA620C66451D
:1033D0002BD33E0018BF012606EB45061644F94ADA
:1033E000964222D3F84A53EA070C02D0944205D100
:1033F00048B918B000201146BDE8F08D002808BF7C
:103400004FF0000C01D04FF0010C0CEB440212F510
:10341000001F0AD8002F14BF4FF0010C4FF0000C12
:103420000CEB450212F5001F07D918B03A462B469F
:103430002146BDE8F04DFFF79BBF0022DFF88CA3CB
:10344000002CB8BF534526DADFF884C36345A8BF14
:10345000022220DADFF870C39C451CDCDFF874C35D
:103460000CEB235CBCF1140F08DDCCF1340627FA19
:1034700006FC0CFA06F6BE420DD108E05FB9CCF1AD
:10348000140623FA06FC0CFA06F69E4203D10CF051
:103490000102C2F1020251EA000C19D1002D17DA23
:1034A000002C18BF022A01D0012A07D00220FFF702
:1034B000B0FE18B0BDE8F04DFFF752BF0220FFF795
:1034C000A8FEFFF74DFF18B081F00041BDE8F08D78
:1034D000B7F1000C6CD1534525D104F1804212F5AF
:1034E000801201BF00280020B74918B008BFBDE80E
:1034F000F08DB548884207DC002DA1BF6046294603
:1035000018B0BDE8F08D07E0281E05DA80F0004114
:1035100018B06046BDE8F08DAF497944D1E90001AB
:1035200018B0BDE8F08DDFF8A0C2634525D1002DAD
:103530001FDA19B1514512D1D8B909E0002840F07D
:10354000EC82A24A214618B062F31E01BDE8F08D5C
:103550000020214618B060F31E01BDE8F08D08DAA6
:1035600018B02346BDE8F04D02460020614600F049
:10357000E5BC18B02146BDE8F08D514518DAB5F12B
:10358000804F0DD0A5F1005CBCF1FF5C10D1B4F10F
:10359000000C0DDB18B06146BDE8F04D00F0ECBB4F
:1035A000234618B00246BDE8F04D194600F09EBE15
:1035B000060024F0004C3BD1D9B1514533D1002C49
:1035C00006DD002DA1BF0020514618B0BDE8F08DEA
:1035D000002C01DD002D1BDB002C13DA002D11DB8C
:1035E000012A4FF0000014BF78497C4918B0BDE8AB
:1035F000F08D022A18BF002C0AD0012A08D1002C15
:1036000006DA0AE0002CB8BF002D11DA012A04D036
:10361000002018B00146BDE8F08D18B000204FF032
:103620000041BDE8F08DA1F14050B0F17F601AD0AB
:10363000012000EBE47050EA020421D0624C521EDB
:103640004FF0000B104304BF4FF0000B644C654873
:1036500083427CDD644A654893421FDD884217DB64
:10366000002D25DB37E0002C00DA4AB1022A0CBF1E
:1036700001204FF0FF3018B0BDE8F04D00F0E3BD81
:103680000120FFF7C6FD18B0BDE8F04DFFF772BE90
:103690004D4A8A4202DC002D0ADC1CE0814202DA3B
:1036A000002D18DA04E0484B994220DD002D12DD90
:1036B0000220FFF7AEFDFFF763FE05460E4600222F
:1036C00053465846214600F011FE18B066F31E011D
:1036D0002846BDE8F08D0220FFF79BFDFFF758FE5E
:1036E0000A46214618B062F31E01BDE8F08D0022A3
:1036F0003046614601F020F880460E466FF0010228
:1037000001F036F94FF05532394B00F023FF4246B5
:10371000334600F0EBFD0022364B00F01BFF8246E3
:103720004246334604911046194600F0DFFD5246EA
:10373000049B00F0DBFD8A4600904FF0C0422E4B08
:103740004046314600F0D2FD2C4A2B4B00E027E0EA
:10375000CDE906015146009800F0C8FD824601916E
:10376000274A284B4046314600F0C0FD5246019B97
:1037700000F0E2FF82460B4602460591DDE90601B4
:1037800000F020FBDDE9062300268846304600F0E5
:10379000D3FF5246059B00F0DDFE024600F07EB9E5
:1037A0000020B1F5801F07DA35223046614601F06E
:1037B000DFF806466FF0340000EB215024E00000F3
:1037C000FFFF1F00FFFF0F000000F03F0000F07F31
:1037D0000000404301FCFFFF921700000000F0FFD3
:1037E0000000F0BF0000E0410000F043FFFFEF3FAA
:1037F0005555D53F0000E03F4715F73FFE822B654A
:1038000044DF5DF80BAE543EA0F2FF300190C1F3EF
:10381000130040F07F6141F040510291FE4988421F
:10382000D8BF002004DDFD498142C8BF012001DD71
:103830000D9008E000200D900198401C0190029826
:10384000A0F5801002900299F54878440B910D99EB
:1038500000EBC100D0E900230F9330460A920B9988
:1038600000F06AFFCDE90601DDE90A2130460F9B31
:1038700000F0A8FA02460B460020EA4900F05EFB81
:10388000059102460B460090DDE9060100F02EFD91
:103890001490E5488A464FF0000878440299006881
:1038A00012904FF0005040EA61010D980F9B01EB20
:1038B000804000F5002109910A9A129800F03CFF1F
:1038C00032460B9B00F046FE4246534600F00EFD8A
:1038D0000646029140465146099B129A00F006FDA9
:1038E000DDE9062300F036FE3246029B00F024FF9D
:1038F000059B009A00F0FAFC0091149A049053463C
:103900001046194600F0F2FC06460246C7480B4630
:10391000029106217844FFF7CDFCCDE90510029B0A
:1039200032461046194600F0E1FCDDE9053200F0B0
:10393000DDFC05910646534640461946149A00F0B0
:1039400041FA009B049A00F0D1FC3246059B00F03E
:1039500039FACDE90510424653461046194600F0A3
:10396000C5FC0022B24B02910A9000F02BFADDE96F
:10397000053200F027FA0E464246AD4B404600F0B5
:10398000DBFE029B0A9A00F0D7FEDDE9053200F06B
:10399000E1FD424602910A9033461046514600F03E
:1039A000A5FCCDE906015346149A02990A9800F045
:1039B0009DFC8A460290334642460099049800F0E6
:1039C00095FC5346029A00F0FDF982460B460246EA
:1039D0000591DDE9060100F0F5F9DDE90623002097
:1039E0008846064600F0A8FE5246059B00F0B2FD50
:1039F000824609914FF060428E4B3046414600F0BE
:103A000075FC049006918C4A8A4B5046099900F047
:103A10006DFC82460291894A894B3046414600F04E
:103A200065FC5246029B00F0CDF9864B7B440D9A13
:103A300003EBC203D3E9002300F0C4F90E90079111
:103A4000019800F000FC0591DDE9061382460E9A0C
:103A5000049800F0B7F97C4A7A440D9B02EBC3034B
:103A6000D3E900230093029200F0ACF95246059B83
:103A700000F0A8F90026884652463046059B00F023
:103A80005BFE009B029A00F057FE069B049A00F032
:103A900053FE079B0E9A00F05DFD024600200B4688
:103AA00002903846294600F021FC824601912B46BF
:103AB00038461946029A00F03FFE3246434600F06F
:103AC00015FC5246019B00F07DF907468A463246B6
:103AD00043462946029800F009FC05460E463A4640
:103AE000534600F06FF9594A8846914221DBA8EB12
:103AF000020353EA000210D12A46334600F01CFEAE
:103B0000CDE90401524A534B3846514600F05AF968
:103B1000DDE9042300F0E8FC21D20220FFF779FB65
:103B2000FFF72EFC0A46214618B062F31E01BDE8DD
:103B3000F08D494B28F000429A4210D3474A08EBD7
:103B4000020353EA00027FF4C6AD2A46334600F072
:103B5000F3FD3A46534600F0C7FC7FF6BCAD0022A9
:103B6000019228F000403E493E4A01EB205182423A
:103B700023DA481C4FF4801121FA00F040443A4AFD
:103B8000C0F30A517A44394BA1F2FF31CB4020EA0D
:103B90000303C0F3130040F48010C1F11401C840C6
:103BA00012680190B8F1000FBCBF40420190284656
:103BB000314600F0C1FD05460E462A4633463846DA
:103BC000514600F0FFF84FF000084246284B4046AF
:103BD000059100F08BFBCDE90601264A264B4046B5
:103BE000059900F083FB009102902A463346404637
:103BF000059900F0A1FD3A46534600F0ABFC1F4A80
:103C00001F4B00F073FB009B029A00F0DBF80746A5
:103C1000884602460B4635E08E9803007AB60B00C4
:103C2000DA1300000000F03F1214000040130000FF
:103C30000000084009C7EE3FFD033ADCF5015B14C4
:103C4000E02F3EBE18120000DC1100000000904082
:103C5000FE822B654715973C00CC904000346F3FA7
:103C600001FCFFFF0000E03F28110000FFFF0F00F4
:103C7000432EE63F396CA80C615C20BEEF39FAFE9A
:103C8000422EE63FDDE9060100F09CF8DDE906235F
:103C900005460E4600F050FD3A46434600F05AFCF9
:103CA0000F462A46334600901046194600F01EFB88
:103CB000824602462E4888460B4605217844FFF787
:103CC000F9FA5246434600F011FB2A46334600F00B
:103CD00041FC80468A463B4628463146009A00F021
:103CE00005FB3B46009A00F06DF80691009000221B
:103CF0004FF080434046514600F01EFD0F460C90A9
:103D0000424653462846314600F0F0FA3B460C9AAC
:103D100000F014F9069B009A00F00EFD2A46334687
:103D200000F00AFD0022134B00F014FC0546019838
:103D30000E4601EB00510815002810DC28463146DC
:103D4000019A00F015FEFFF7A1FA042808BFFFF75B
:103D50001FFB28463146019A00F00AFE05460B4635
:103D600018B02A4658462146BDE8F04D00F0BEBACC
:103D7000C80F00000000F03F2DE9F04106460F4655
:103D800000F0F4FB041E0D4618BF0120284320F06C
:103D90000040C0F17F6000F1E040C00F0ED0301C49
:103DA00018BF0120384320F00040C0F17F6000F1CF
:103DB000E040C00F04BF0120FFF72BFA2046294640
:103DC000BDE8F08110B591EA030F48BF83F00043CE
:103DD00000F1BA84841A71EB030C05D2121943EB7B
:103DE0000C03001B61EB0C01DFF824E14FEA1154D6
:103DF000A4EB135C1EEA430F18BF9EEA445F73D026
:103E000023EA0E03DCF1200E21EA045143F480136F
:103E100032D322FA0CFE10EB0E0023FA0CFE41EB1B
:103E20000E01CCF1200E03FA0EFE10EB0E0051F144
:103E30000001B1F5801FCCF1200E32D201EB04510C
:103E400012FA0EF2BDE8104058BF7047401C38BF50
:103E50005FEA420218BF7047002814BF20F001003B
:103E600041F100014FEA410313F5001F38BF7047CD
:103E7000A1F1C04100F032BB012A43EB0302ACF1D7
:103E8000200CDCF11F0E32BF4FF0000E23FA0CF3B2
:103E900010EB030041EB0451B4EB115FD0D0A1EB68
:103EA000045101F5801149085FEA300001EB04512B
:103EB0000ED350F1000038BF12FA0EFE08D1BDE853
:103EC0001040C9E7401C38BF5FEA4202CAD1C3E7CD
:103ED000BDE810404FEA410313F5001F38BF70479B
:103EE000A1F1C04100F0FABA9EEA445F08D011EA9D
:103EF0005E0FBDE8104004BF01F000410020704794
:103F0000BDE8104070B500F09BFA00BF64FBBE3EF8
:103F10000000E0FF02494FF0000000F0F7BC00BFD6
:103F20000000F87F491058BFC1F140415B1058BFF5
:103F3000C3F140438B42EFF3008070472DE9C0414D
:103F400030B4DFF8A0C23CEA111418BF3CEA1314E5
:103F500000F0EC8081EA03051CEA111444EAD574F0
:103F600018BF1CEA131500F0C780A4EB05044FF03E
:103F7000004545EAC12145EAC32341EA505143EADD
:103F8000525304F17F74994204F500344FEAC02083
:103F90004FEAC22208BF904200F09C804FEA1365AE
:103FA0000FF24016765D4FEA134506FB05F7C7F1A1
:103FB000807706FB07F74FEAD737A7FB03687642FF
:103FC000C8F58038A7FB06CE38BFA8F1010807FB6B
:103FD00008E64FF0000EA6FB028CE6FB03CEDCF1F8
:103FE000000CCEF1004E38BFAEF1010EA6FB0C580E
:103FF0004FF000074FF00005E6FB0E87A1FB08C657
:10400000A0FB07CE16EB0E0645F10005E1FB0765A8
:1040100015F1E04E7EBFA4F580345FEA46066D419F
:1040200016F1800745F100054FEA17274FEA0666AB
:1040300047EA0567A6F1DE46B6F1805F4FEA15252F
:104040001FD9384624F0010C05EBC471BCF1FE6F9A
:1040500001EB0C1102D8F0BCBDE8008124425CBF2A
:1040600001F5801E9EEAC47F02D4F0BCBDE8008149
:10407000244238D4F0BCA1F1C041BDE8004100F0B9
:104080002DBA4FEAD22242EA43524FEAD323A7FB8A
:1040900002864FEAD02040EA415007FB03661EEA41
:1040A0000E0F4FEAD12105FB026658BFA6EB005662
:1040B000B6EB00564FEA520E4EEAC37E18EB0E0ED8
:1040C00056EB530EBDD518EB02085E417F1C55F12F
:1040D0000005B6E74FF480154FF000074FF00006DB
:1040E0004FF00008ADE7F0BC4FF0000001F1C04117
:1040F00001F00041BDE8008111EA0C1F0CEA131524
:1041000000D00CE013EA0C1F00F025804FF00000F7
:10411000F0BC81EA030101F00041BDE80081F0BC80
:10412000BDE8004181EA030100F0D8B9F0BCBDE868
:10413000004170B500F084F9097EFC3E00F007B83C
:1041400081EA03014FF0000001F00041704781EA6D
:10415000030100F0C3B9F0BCBDE800414FF000001E
:1041600021497047FFFDFBF9F7F5F4F2F0EEEDEBB6
:10417000E9E8E6E4E3E1E0DEDDDBDAD8D7D5D4D365
:10418000D1D0CFCDCCCBCAC8C7C6C5C4C2C1C0BFB1
:10419000BEBDBCBBBAB9B8B7B6B5B4B3B2B1B0AFB7
:1041A000AEADACABAAA9A8A8A7A6A5A4A3A3A2A19B
:1041B000A09F9F9E9D9C9C9B9A9999989797969556
:1041C00095949393929191908F8F8E8E8D8C8C8BF2
:1041D0008B8A89898888878786858584848383827A
:1041E000828181800000FF070000F87F4FEA1153B1
:1041F000A3F58063D3F11E03A8BFD3F1200C08DB25
:104200004FF0004242EAC12252EA505232FA03F021
:10421000704709420BD4102BC4BF0020704703F530
:10422000787CBCF1FF3F05D04FF0FF3070474FF076
:104230000000704770B500F003F900BF4992248078
:1042400000207047F0E710F0004248BF4042B0FA4B
:1042500080F310FA03F10AD0C3F11D0303F5806364
:104260004FEA415002EB035202EBD12170474FF06D
:104270000000704751EA030C17D41CF5801F58BF8B
:10428000BCF5801F00F10680994218BF704708BF37
:104290009042704707D711F5801F58BF13F5801F54
:1042A00019D499427047894270471CF5801F08D580
:1042B000BCF5801FF7D58B4218BF704708BF8242FC
:1042C00070474FF4001C1CEB410F38BF1CEB430F31
:1042D00001D28B42704770B500F0B2F892244900C9
:1042E0004FF000514FF08053FFF71CBEDFF848C17C
:1042F00070B51CEA111E1EBF1CEA13159EEA0C0FB6
:1043000095EA0C0F00F06F8081EA030423EA4C1356
:104310004EEAD47E21EA4C1141F4801143F480131B
:10432000AE44A1FB024CA0FB0365AEF17F7E3619C3
:1043300055EB0C05A1FB034C4CF10003A0FB021C48
:1043400016EB0C06654153F10003094218BF46F015
:10435000010613F4007F0BD14FEA03314FEA053019
:10436000340341EA155140EA16506FF003020AE0A7
:104370004FEAC3214FEAC520F40241EA555140EA11
:1043800056506FF0020202EB2E4201EB025585EA15
:10439000CE710AD05FEA440C18BF24F0004450F1FB
:1043A000000041F1000120EAD47040F2FE7C624539
:1043B00000D270BDA84214BF4FF080444FF040447B
:1043C000002E08BF0024BEF1806FA8BFA1F1C0413C
:1043D000BDE8704080F282804FF0000001F1C041E2
:1043E00001F0004170479EEA0C0F0CEA131518BF4C
:1043F00095EA0C0F06D04FF0000081EA030E0EF094
:10440000004170BD00F01CF88900013E00F007B8C3
:1044100000F009B84FEA430C5FEA5C5C08D081EA1F
:10442000030100F05BB84FEA410C5FEA5C5CF6D137
:104430004FF00000014970470000FF070000F87FBF
:104440000EF1020E2EF0030E5EF8046B364205D418
:10445000012A43EB030515F5001F12D8012841EB93
:10446000010C1CF5001F0CD80ED14FEAD17C15F5BC
:10447000001F0CEB4C0C0CF1020C08BF4CEBD37C76
:1044800004E04FF0080C01E04FEAD37C0CEB4C0544
:1044900026FA05F606F00706B6F1040C06D20EEB76
:1044A000860CBDE870404CF0010C6047DFE80CF072
:1044B000090B02024FF000414FF00000A1F500216E
:1044C00070BD19461046012851EB010418BFD4F500
:1044D000001484BF002001F0004170BD0808A0F561
:1044E00000114FEA3101704753EA010C17D41CF553
:1044F000801F58BFBCF5801F00F106808B4218BF9B
:10450000704708BF8242704707D713F5801F58BF16
:1045100011F5801F19D48B4270479B4270471CF5E0
:10452000801F08D5BCF5801FF7D5994218BF70478A
:1045300008BF904270474FF4001C1CEB430F38BF7C
:104540001CEB410F01D2994270470FB40CBC03BC65
:10455000FFF7C1BE91EA030F10B581F000413FF5AE
:1045600039AC83F0004300F0EFB800002DE9F041D2
:1045700001F5801CBCF5001FC0F2C3804FEA115C3E
:1045800021EA0C510CF1FD0C41F480115FEA5C0C46
:104590000CF5C07C01D3400049413DA4890241EAA9
:1045A000905187028E0E0A0CA45D04FB04F602FBF8
:1045B00006F6C6F14046A4FB0662F60D46EA422620
:1045C00006FB06F4A4FB01235242C3F1404338BF6B
:1045D0005B1EA6FB02420024E6FB0324D20B42EA48
:1045E0004446A6FB0623A1FB02E2A3FB07E4A418B2
:1045F0004FF0000252F10002E3FB01426442C2F1BB
:10460000404E38BFAEF1010EA6FB04234FF000026E
:10461000E6FB0E32A2FB03464FF00004B61954F13C
:104620000004E2FB0264A1FB06E6A4FB07E816EB2C
:1046300008064FF0000858F10008E4FB01687642D4
:10464000C8F1405838BFA8F10108A2FB06E4A3FB5B
:1046500008E52D194FF0000454F10004E2FB085462
:10466000A1FB05E6A7FB04E818EB06084FF00006DF
:1046700056F10006E1FB048618F1200556F100060C
:10468000A809A8F11B08B10908F03F08B8F10A0F02
:1046900040EA86601CD901EB0C51BDE8F08100BFF7
:1046A000FCF5EEE8E2DDD8D3CFCBC7C3C0BDB9B6C9
:1046B000B4B1AEACA9A7A5A3A19F9D9B9A989695CE
:1046C0009392908F8D8C8B89888786858483828155
:1046D000A0FB006800FB01F208EB4208B8EB87285A
:1046E00007D5341858EB0104D5D5401C51F1000111
:1046F000D1E7341A78EB0104CDD4401E71F10001EA
:10470000C9E75FEA4C0C5FEA9C5C0DD105D34FF022
:10471000000001F00041BDE8F081BDE8F04170B556
:10472000FFF78EFE6DDBFFBEBDE8F0414FF00000ED
:10473000004970470000F87F10B591EA030F48BFA9
:1047400083F000433FF546AB841A71EB030C07D2AC
:1047500012198CF0004C43EB0C03001B61EB0C01B5
:10476000DFF8A4E14FEA1154A4EB135C1EEA430FF7
:1047700018BF9EEA445F00F0B08023EA6E03524205
:1047800021EA0451C3EB6E0338BF5B1EDCF1200E3F
:1047900025D322FA0CFE10EB0E0043FA0CFE41EB7F
:1047A0000E01CCF1200E03FA0EFE10EB0E0051F1BB
:1047B0000001CCF1200E29D412FA0EF201EB0451C3
:1047C000BDE8104058BF7047401C1CBFB2F1004FFD
:1047D000704700280CBF491C20F00100704712EB05
:1047E000020E43EB030218BF4FF0010E4EEA4202E5
:1047F000ACF1200CDCF11E0E54D943FA0CFE10EB88
:104800000E0051F1FF31CCF11E0ED5D50EF1010E87
:1048100012FA0EFE404141EB010101EB445C5FEAFC
:104820005C5C10D910EBDE7001EB045138BFBEF1B7
:10483000004FBDE8104018BF704700280CBF491C4E
:1048400020F00100704730D24FEAD42C11F500114E
:1048500024F400641BD0B1FA81F20B3AA41AA41E0E
:10486000D2F12003914030FA03F31943904001EB59
:10487000CC71002C01EB0451BDE81040A8BF70477B
:1048800001F1C0414FF0000001F000417047B0FA63
:1048900080F310FA03F100D110BDE41A173C48056B
:1048A000C90AE4E701EB045110BD491001EB0451C2
:1048B000BDE810404FEA300002E04FF000017047C1
:1048C0004A0008BF0042F8D0B2F5001F28BF704769
:1048D00001F000414FF0000070479EEA445F07D0AE
:1048E00011EA5E0FBDE8104004BF002100207047B0
:1048F000BDE8104070B5FFF7A3FD00BF40DFF63EF6
:1049000083F00041104670470000E0FF0CF00F03F9
:10491000092B08BF082000F059800A2B0BD0082B68
:1049200018BF704708BF1CF0400F0AD04FF00000BE
:104930004FF0000170471CF0400F18BF4FF00040CF
:1049400070471CF0100F08D020F0704300F07F4239
:1049500042EAD3014FEA4370704700F0604021F013
:104960007F4242EA000201F07F4040EA72707047E5
:104970004FF0FF0C4CF4E06C1CEA11531CBF9CEA96
:10498000030C9445C2BFDA4201EB02517047002B81
:104990000DD0BCF1000F0FD0002A01F00041A4BFE0
:1049A00041F0E04141F07F614FF00000704701F0BD
:1049B00000414FF00000704750EA01334FF09B0C6C
:1049C00018BF4CF0806C7FF4A5AA70471CF4801FC0
:1049D00011D01CF4E02F03D06FEACC3149007047AE
:1049E0004FF04050EFF3008222F0704242EA0002A2
:1049F00082F3008870474FF000007047000000000D
:104A000000000000002F0000000007000700001455
:104A10007F147F1400242A7F2A1200626408132363
:104A200000364955225000000503000000001C22FA
:104A30004100000041221C000014083E0814000838
:104A4000083E0808000000A06000000808080808E8
:104A5000000060600000002010080402003E514980
:104A6000453E0000427F400000426151494600211E
:104A700041454B31001814127F1000274545453938
:104A8000003C4A4949300001710905030036494993
:104A9000493600064949291E00003636000000004C
:104AA0005636000000081422410000141414141497
:104AB0000000412214080002015109060032495940
:104AC000513E007C1211127C007F49494936003E5C
:104AD00041414122007F4141221C007F4949494117
:104AE000007F09090901003E4149497A007F080811
:104AF000087F0000417F4100002040413F01007FCE
:104B000008142241007F40404040007F020C027F99
:104B1000007F0408107F003E4141413E007F0909AB
:104B20000906003E4151215E007F091929460046D1
:104B3000494949310001017F0101003F4040403FA8
:104B4000001F2040201F003F4038403F00631408F2
:104B500014630007087008070061514945430000CD
:104B60007F41410000552A552A55000041417F00F0
:104B700000040201020400404040404000000102E5
:104B80000400002054545478007F484444380038CE
:104B90004444442000384444487F00385454541856
:104BA00000087E0901020018A4A4A47C007F080468
:104BB00004780000447D4000004080847D00007F38
:104BC000102844000000417F4000007C0418047855
:104BD000007C0804047800384444443800FC242451
:104BE00024180018242418FC007C08040408004839
:104BF0005454542000043F444020003C4040207C5A
:104C0000001C2040201C003C4030403C0044281048
:104C10002844001CA0A0A07C004464544C441414FC
:104C20001414141400000000000000000000F03F05
:104C3000000000000000F83F00000000000000003D
:104C40000000004003B8E23F000000000000000048
:104C500006D0CF43EBFD4C3E033333333333E33FD6
:104C6000FFAB6FDBB66DDB3F4D268F515555D53F02
:104C700001411DA96074D13F65DBC9934A86CD3FD0
:104C8000EF4E454A287ECA3F3E5555555555C53FBE
:104C900093BDBE166CC166BF2CDE25AF6A56113FB0
:104CA000F16BD2C541BDBBBED0A4BE726937663EB2
:104CB0000000000000000000D84C000800000020A8
:104CC000940600006C010008AC5000089406002017
:104CD00024090000C80100081184A24A04000A1A2D
:104CE00001020304060708090143C00343F83F43D8
:104CF000FE7F1B7FFE2F2BC0031925E001800722BA
:104D000070220E22383A1C0319093A0C1522062289
:104D100060192122C0192D1CC00180394A80061A51
:104D20000314191649061926192E49061A20961138
:104D30001B0C3022290613C0072B0C100613181861
:104D40002B4006064A600612042B1008060B113091
:104D50000C0313180C4A20065A04063A08333A0C7E
:104D60003F2B0CF8061C04F003062C06E007063A5D
:104D70008006111A0C061977B9061A048F1C0E60EA
:104D800004B72A07061EC003200C80F814200CC0AC
:104D90001AF86612C01A3C7212C01A1F06146080FC
:104DA0000716300860C00316301860F0012510188F
:104DB000307C1D1818303E061C10600F062430E0B1
:104DC000071D0C30C00106332080AA0CFC42C04AEB
:104DD00003061A8023197539061989111916193B0A
:104DE00019062206192E220C2270221C3A380319A9
:104DF0000922F0220E1AE0A819271A0385211BFFA9
:104E0000FF3F1143FE7F43F81F2950011210088015
:104E100080FC96E584FC100838C8090E08A8181F05
:104E200080601F024C8037173F4442414078171082
:104E300010D0FF901046FE020202FE13040312FF80
:104E40002B8360522B3F40201C60028C1E1AF21EE6
:104E50001AF81A11100B04047E018047300F102736
:104E60002A474715404042CC2A900146FF101116B0
:104E700010180C3F1028603F1010010E3040B9157B
:104E80008060F807151CE0010633E01E19A512FF2B
:104E9000380B804020130C1320408080BF7009889D
:104EA0008C8A89888888F84BFF4401196E19601B29
:104EB00044C40B1808401010FF1010104F180F10AA
:104EC0003C131014B840300E014080403F10280FB2
:104ED00010F196909010282724E42424E404E01C88
:104EE00040807F062B207F38111010C8B88FE888CB
:104EF00088404848E85F4848484017081808FF04B9
:104F000004000823020B1222D20A061808FE02121D
:104F1000929292FE042C1202FE9E2B40404A1E48A2
:104F2000485F4040A22B100CAB3B45C6B22B140C83
:104F3000DB2D1E2040407D197F32401AF0B939BE6A
:104F400029BF311B0F040119844404040F200E8073
:104F500060F80710901011161010D0103A01623846
:104F600008415E4040704E414001202A240137FC38
:104F700022222223222A02013C42827F08130202BB
:104F80002C4044C48949821981180F103C13101415
:104F9000B840300E014080403F10191A100C90208C
:104FA000984828090E2848A818150242817F1F40FA
:104FB000404242427E0412401F40504E4848FFEF9C
:104FC0001B40F89A4110083E0202FF12221E0524DF
:104FD0000F40807F39DB1EF010101413DF114810D2
:104FE0008181414121110D030D1121414181816BCD
:104FF0003C4242FE0669F009255A0145380D4042FF
:10500000445840407F40405048C6107A440129EF40
:10501000180D0808E8292E28E80808C80C0B0631E6
:105020001DFF0949899F4A0FA5300E2010E824274B
:105030002424E424342C20E01D80601F09014B7FD0
:105040000926312809FC242424FC252624081204DE
:1050500008102040308F80844C55252525554C80E4
:1050600080809F2C4042CC442FA4242222A3621192
:10507000300E201F20584750484542454850405068
:105080000CFE0202F2121212F20202FE1C7F20201B
:10509000914D2427202080016D2D0102030404205E
:0C50A000090607080902040608000000C9
:0400000508000131BD
:00000001FF
